:020000040000FA
:100000000C945E000C9486000C9486000C94860080
:100010000C9486000C9486000C9486000C94860048
:100020000C9486000C9486000C9486000C94860038
:100030000C9486000C9486000C9486000C94860028
:100040000C9469020C9486000C94D9020C94B302AF
:100050000C9486000C9486000C9486000C94860008
:100060000C9486000C948600000000080002010039
:100070000003040700000000000000000000000072
:10008000250028002B0000000000240027002A0083
:10009000040404040404040402020202020203032E
:1000A0000303030301020408102040800102040836
:1000B00010200102040810200B03310511241FBE7B
:1000C000CFEFD8E0DEBFCDBF21E0AAE2B1E001C0B2
:1000D0001D92AC3DB207E1F711E0A0E0B1E0E4E62B
:1000E000FFE002C005900D92AA32B107D9F710E0E7
:1000F000CDE5D0E004C02197FE010E94AD05CC35CE
:10010000D107C9F70E9481030C94A5070C94000045
:1001100090E0FC01EC55FF4F249180579F4FFC016C
:100120008491882399F090E0880F991FFC01EA5789
:10013000FF4FA591B491FC01E458FF4F8591949134
:100140008FB7F894EC91E22BEC938FBF089508954C
:10015000AF92BF92CF92DF92EF92FF920F931F93D5
:10016000CF93DF936C017B018B01040F151FEB0113
:100170005E01AE18BF08C017D10759F06991D601CA
:10018000ED91FC910190F081E02DC6010995892B3C
:1001900079F7C501DF91CF911F910F91FF90EF90FB
:1001A000DF90CF90BF90AF900895FC01538D448DA8
:1001B000252F30E0842F90E0821B930B541710F012
:1001C000CF96089501970895FC01918D828D98171F
:1001D00061F0A28DAE0FBF2FB11D5D968C91928DF7
:1001E0009F5F9F73928F90E008958FEF9FEF089528
:1001F0002FB7F8948091310190913201A091330191
:10020000B09134012FBF80933D0190933E01A093A4
:100210003F01B093400185E391E00E94E40097FF25
:1002200026C02FB7F8948091310190913201A091AE
:100230003301B09134012FBF40913D0150913E01F7
:1002400060913F0170914001841B950BA60BB70B89
:100250004091390150913A0160913B0170913C010C
:1002600084179507A607B707B0F28FEF9FEF0895A1
:10027000FC01918D828D981731F0828DE80FF11D70
:10028000858D90E008958FEF9FEF0895FC01918D8B
:10029000228D892F90E0805C9F4F821B91098F7384
:1002A0009927089585E391E00E94460121E0892B7A
:1002B00009F420E0822F089580E090E0892B29F056
:1002C0000E94520181110C9400000895FC01A48D3C
:1002D000A80FB92FB11DA35ABF4F2C91848D90E068
:1002E00001968F739927848FA689B7892C93A0894B
:1002F000B1898C91837080648C93938D848D9813D5
:1003000006C00288F389E02D80818F7D8083089567
:10031000EF92FF920F931F93CF93DF93EC0181E055
:10032000888F9B8D8C8D98131AC0E889F9898081FC
:1003300085FF15C09FB7F894EE89FF896083E8892F
:10034000F98980818370806480839FBF81E090E021
:10035000DF91CF911F910F91FF90EF900895F62EAE
:100360000B8D10E00F5F1F4F0F731127E02E8C8D48
:100370008E110CC00FB607FCFACFE889F98980818D
:1003800085FFF5CFCE010E946601F1CFEB8DEC0F1A
:10039000FD2FF11DE35AFF4FF0829FB7F8940B8FAA
:1003A000EA89FB8980818062CFCFCF93DF93EC0114
:1003B000888D8823B9F0AA89BB89E889F9898C914D
:1003C00085FD03C0808186FD0DC00FB607FCF7CF09
:1003D0008C9185FFF2CF808185FFEDCFCE010E9409
:1003E0006601E9CFDF91CF91089590E0FC01E859D3
:1003F000FF4F2491FC01EC55FF4F3491FC01E05775
:10040000FF4FE491EE23C9F0222339F0233001F1AC
:10041000A8F4213019F1223029F1F0E0EE0FFF1F8E
:10042000E458FF4FA591B4918FB7F894EC91611106
:1004300026C030953E233C938FBF08952730A9F006
:100440002830C9F0243049F7809180008F7D03C0A7
:10045000809180008F7780938000DFCF84B58F7785
:1004600084BDDBCF84B58F7DFBCF8091B0008F77CB
:100470008093B000D2CF8091B0008F7DF9CF3E2B1A
:10048000DACF0F931F93CF93DF93EC01888199818B
:10049000009759F02A813B812617370730F081E019
:1004A000DF91CF911F910F9108958B016F5F7F4F67
:1004B0000E94D806009759F0998388831B830A838A
:1004C0002C813D81232B59F7FC011082E8CF80E07D
:1004D000E7CF1F920F920FB60F9211242F933F93E5
:1004E0008F939F93AF93BF9380913101909132018D
:1004F000A0913301B09134013091300123E0230FFA
:100500002D3758F50196A11DB11D20933001809320
:10051000310190933201A0933301B0933401809163
:100520002C0190912D01A0912E01B0912F010196E7
:10053000A11DB11D80932C0190932D01A0932E013C
:10054000B0932F01BF91AF919F918F913F912F91C8
:100550000F900FBE0F901F90189526E8230F02965C
:10056000A11DB11DD2CF1F920F920FB60F92112471
:100570002F933F934F935F936F937F938F939F93AB
:10058000AF93BF93EF93FF9385E391E00E946601E1
:10059000FF91EF91BF91AF919F918F917F916F915B
:1005A0005F914F913F912F910F900FBE0F901F9031
:1005B00018951F920F920FB60F9211242F938F93BD
:1005C0009F93EF93FF93E0914501F0914601808165
:1005D000E0914B01F0914C0182FD1BC09081809114
:1005E0004E018F5F8F7320914F01821741F0E09190
:1005F0004E01F0E0EB5CFE4F958F80934E01FF9132
:10060000EF919F918F912F910F900FBE0F901F90A0
:1006100018958081F4CF109238011092370188EE3E
:1006200093E0A0E0B0E08093390190933A01A09369
:100630003B01B0933C018AE091E0909336018093B6
:10064000350185EC90E0909342018093410184EC68
:1006500090E0909344018093430180EC90E090936C
:1006600046018093450181EC90E09093480180938E
:10067000470182EC90E090934A018093490186EC17
:1006800090E090934C0180934B0110924E01109298
:100690004F0110925001109251011092D30110920B
:1006A000D2011092D5011092D4011092D70110926C
:1006B000D60170E060E082ED91E00E94410220915D
:1006C000D2013091D301811113C02115310519F0E8
:1006D000C9010E944F061092D3011092D2011092CC
:1006E000D7011092D6011092D5011092D40108952D
:1006F0001092D7011092D60168E271E0C9010C9402
:100700009E07CF93DF93CDB7DEB728970FB6F89447
:10071000DEBF0FBECDBF789484B5826084BD84B542
:10072000816084BD85B5826085BD85B5816085BDEC
:1007300080916E00816080936E00109281008091A4
:10074000810082608093810080918100816080932C
:100750008100809180008160809380008091B10051
:1007600084608093B1008091B00081608093B0007C
:1007700080917A00846080937A0080917A00826010
:1007800080937A0080917A00816080937A008091D2
:100790007A00806880937A001092C1008BE00E94FA
:1007A00088008AE00E94880089E00E94880086E034
:1007B0000E948800E0914501F091460182E080832B
:1007C000E0914101F09142011082E0914301F091EA
:1007D00044018FEC808310924D01E0914901F0912A
:1007E0004A0186E08083E0914701F09148018081D1
:1007F00080618083E0914701F091480180818860A9
:100800008083E0914701F091480180818068808376
:10081000E0914701F091480180818F7D808383E7DB
:10082000A82E80E0B82E90E0C92E90E0D92E8091BD
:100830002A0190912B011816190694F040E150E01E
:1008400068E171E085E391E00E94A80080912A01AF
:1008500090912B01019690932B0180932A01E7CF71
:1008600085E391E00E944601181619060CF088C035
:100870001A8219821C821B821E821D8270E060E037
:10088000CE0101960E94410229813A8181112BC03B
:100890002115310519F0C9010E944F061A821982EB
:1008A0001E821D821C821B820E94F80097FD23C0BD
:1008B0008F8318860D811E810F5F1F4FB801CE01F7
:1008C00001960E944102882379F329813A818D8122
:1008D0009E81BE01695F7F4F820F931F0E949E071A
:1008E0001E830D83E1CF1E821D8268E271E0C90183
:1008F0000E949E07D9CF8091D2019091D301009799
:1009000009F44CC069817A816115710509F444C00C
:100910004091D4015091D5012D813E81421753075A
:10092000D8F10E949E078D819E819093D70180937C
:10093000D6011E821D8289819A81009711F00E9442
:100940004F068091D2019091D30110E000E0009712
:1009500021F00E943A05162F072FE12EF02E8BE092
:100960000E948800E114F10481F560E08BE00E94B0
:10097000F5018AE00E94880060E08AE00E94F501AB
:10098000C114D10409F453CF0E945201882309F401
:100990004ECF0E9400004BCF0E944F0689819A8162
:1009A0009093D3018093D2018B819C819093D50148
:1009B0008093D4018D819E819093D7018093D6013D
:1009C0001A8219821C821B82B4CF8FEFE816F104C1
:1009D00011F461E0CBCFF5018491833031F148F41B
:1009E0008130C9F08230E1F0F0E8EF16F1048CF7C5
:1009F000BCCF873031F1883061F18430A9F7809124
:100A00008000806280938000812F902F90938B00D4
:100A100080938A00AECF84B5806884BD17BDA9CF0E
:100A200084B5806284BD18BDA4CF809180008068A9
:100A300080938000812F902F90938900809388006D
:100A400098CF8091B00080688093B0001093B3007D
:100A500090CF8091B00080628093B0001093B4007A
:100A600088CF8091D2019091D301009711F00C941E
:100A70004F0608951F93FC0199278827BC01E8942D
:100A800011911032E9F3193010F01E30C8F31B3207
:100A900051F01D3249F4689406C00E946105610F4F
:100AA000711D811D911D119110531A30B0F33EF448
:100AB00090958095709561957F4F8F4F9F4F1F91B7
:100AC0000895592F482F372F262F660F771F881F1D
:100AD000991F660F771F881F991F620F731F841F4E
:100AE000951F660F771F881F991F08952F923F92B9
:100AF0004F925F926F927F928F929F92AF92BF922E
:100B0000CF92DF92EF92FF920F931F93CF93DF93D9
:100B1000CDB7DEB7CA1BDB0B0FB6F894DEBF0FBE36
:100B2000CDBF09942A88398848885F846E847D8483
:100B30008C849B84AA84B984C884DF80EE80FD8085
:100B40000C811B81AA81B981CE0FD11D0FB6F894FB
:100B5000DEBF0FBECDBFED010895EE0FFF1F059064
:100B6000F491E02D09940F931F93CF93DF9382307C
:100B7000910510F482E090E0E091DA01F091DB0160
:100B800030E020E0B0E0A0E0309799F42115310585
:100B900009F44AC0281B390B24303105D8F58A8165
:100BA0009B816115710589F1FB0193838283FE01AD
:100BB00011C0408151810281138148175907E0F02B
:100BC0004817590799F4109761F012960C931297F1
:100BD00013961C933296CF01DF91CF911F910F9105
:100BE00008950093DA011093DB01F4CF211531054C
:100BF00051F04217530738F0A901DB019A01BD01FA
:100C0000DF01F801C1CFEF01F9CF9093DB018093B1
:100C1000DA01CDCFFE01E20FF31F819391932250B1
:100C2000310939832883D7CF2091D8013091D90158
:100C3000232B41F420910201309103013093D9011B
:100C40002093D80120910001309101012115310537
:100C500041F42DB73EB74091040150910501241B8A
:100C6000350BE091D801F091D901E217F307A0F418
:100C70002E1B3F0B2817390778F0AC014E5F5F4FF2
:100C80002417350748F04E0F5F1F5093D90140934A
:100C9000D801819391939FCFF0E0E0E09CCFCF9378
:100CA000DF930097E9F0FC01329713821282A09142
:100CB000DA01B091DB01ED0130E020E01097A1F402
:100CC00020813181820F931F2091D8013091D90169
:100CD0002817390709F061C0F093D901E093D801D2
:100CE000DF91CF910895EA01CE17DF07E8F54A8139
:100CF0005B819E0141155105B1F7E901FB83EA8350
:100D000049915991C40FD51FEC17FD0761F48081FB
:100D100091810296840F951FE901998388838281CE
:100D200093819B838A83F0E0E0E012968D919C9101
:100D300013970097B9F52D913C911197CD0102962B
:100D4000820F931F2091D8013091D90128173907BC
:100D500039F6309751F51092DB011092DA01B09319
:100D6000D901A093D801BCCFD383C28340815181E4
:100D7000840F951FC817D90761F44E5F5F4F8881B4
:100D80009981480F591F518340838A819B819383A6
:100D900082832115310509F0B0CFF093DB01E09398
:100DA000DA019ECFFD01DC01C0CF13821282D7CFC2
:100DB000B0E0A0E0EEEDF6E00C9478058C01009731
:100DC00051F4CB010E94B3058C01C801CDB7DEB749
:100DD000E0E10C949405FC01E60FF71F9C01225002
:100DE0003109E217F30708F49DC0D901CD91DC91D8
:100DF0001197C617D70798F0C530D10530F3CE014B
:100E000004978617970708F3C61BD70B2297C19341
:100E1000D1936D937C93CF010E944F06D6CF5B0197
:100E2000AC1ABD0A4C018C0E9D1EA091DA01B09146
:100E3000DB01512C412CF12CE12C109731F58091E4
:100E4000D8019091D9018815990509F05CC0461622
:100E5000570608F058C08091000190910101009759
:100E600041F48DB79EB74091040150910501841B58
:100E7000950BE817F90708F055C0F093D901E093F6
:100E8000D801F90171836083A0CF8D919C91119756
:100E900012966C90129713967C901397A815B9052B
:100EA00059F56C0142E0C40ED11CCA14DB0420F1D8
:100EB000AC014A195B09DA011296159780F062823B
:100EC000738251834083D9016D937C93E114F104C3
:100ED00071F0D7011396FC93EE93129776CF22967A
:100EE0008C0F9D1FF90191838083F301EFCFF09365
:100EF000DB01E093DA0169CF4816590608F42C01AA
:100F00007D01D3019ACFCB010E94B3057C010097EC
:100F100049F0AE01B8010E949507C8010E944F0632
:100F2000870153CF10E000E050CFFB01DC0102C08D
:100F300001900D9241505040D8F70895FB01DC011B
:100F400001900D920020E1F7089510E0CDE5D0E08A
:100F500004C0FE010E94AD052196CE35D107C9F728
:100F6000F894FFCF0000DC01800000000000880141
:100F7000A800D500D5014601E4003801566F63652D
:0E0F800020736520636F6E6563746F750000EB
:107E0000112484B714BE81FFF0D085E080938100F7
:107E100082E08093C00088E18093C10086E0809377
:107E2000C20080E18093C4008EE0C9D0259A86E02C
:107E300020E33CEF91E0309385002093840096BBD3
:107E4000B09BFECF1D9AA8958150A9F7CC24DD24C4
:107E500088248394B5E0AB2EA1E19A2EF3E0BF2EE7
:107E6000A2D0813461F49FD0082FAFD0023811F036
:107E7000013811F484E001C083E08DD089C08234E0
:107E800011F484E103C0853419F485E0A6D080C0E4
:107E9000853579F488D0E82EFF2485D0082F10E0AE
:107EA000102F00270E291F29000F111F8ED06801E7
:107EB0006FC0863521F484E090D080E0DECF843638
:107EC00009F040C070D06FD0082F6DD080E0C81688
:107ED00080E7D80618F4F601B7BEE895C0E0D1E017
:107EE00062D089930C17E1F7F0E0CF16F0E7DF06D8
:107EF00018F0F601B7BEE89568D007B600FCFDCFD4
:107F0000A601A0E0B1E02C9130E011968C91119780
:107F100090E0982F8827822B932B1296FA010C0160
:107F200087BEE89511244E5F5F4FF1E0A038BF0790
:107F300051F7F601A7BEE89507B600FCFDCF97BE46
:107F4000E89526C08437B1F42ED02DD0F82E2BD052
:107F50003CD0F601EF2C8F010F5F1F4F84911BD097
:107F6000EA94F801C1F70894C11CD11CFA94CF0C13
:107F7000D11C0EC0853739F428D08EE10CD085E9AC
:107F80000AD08FE07ACF813511F488E018D01DD067
:107F900080E101D065CF982F8091C00085FFFCCF94
:107FA0009093C60008958091C00087FFFCCF809118
:107FB000C00084FD01C0A8958091C6000895E0E648
:107FC000F0E098E1908380830895EDDF803219F02E
:107FD00088E0F5DFFFCF84E1DECF1F93182FE3DFCA
:107FE0001150E9F7F2DF1F91089580E0E8DFEE27F6
:047FF000FF270994CA
:027FFE00040479
:00000001FF
